{
  "_format": "hh-sol-artifact-1",
  "contractName": "MyContract",
  "sourceName": "contracts/MyContract.sol",
  "abi": [
    {
      "anonymous": false,
      "inputs": [
        {
          "indexed": false,
          "internalType": "uint8",
          "name": "version",
          "type": "uint8"
        }
      ],
      "name": "Initialized",
      "type": "event"
    },
    {
      "inputs": [],
      "name": "INITIAL_CONSTANT",
      "outputs": [
        {
          "internalType": "uint256",
          "name": "",
          "type": "uint256"
        }
      ],
      "stateMutability": "view",
      "type": "function"
    },
    {
      "inputs": [],
      "name": "getStateVariable",
      "outputs": [
        {
          "internalType": "uint256",
          "name": "",
          "type": "uint256"
        }
      ],
      "stateMutability": "view",
      "type": "function"
    },
    {
      "inputs": [
        {
          "internalType": "uint256",
          "name": "stateVariable",
          "type": "uint256"
        }
      ],
      "name": "initialize",
      "outputs": [],
      "stateMutability": "nonpayable",
      "type": "function"
    },
    {
      "inputs": [
        {
          "internalType": "uint256",
          "name": "value",
          "type": "uint256"
        }
      ],
      "name": "setStateVariable",
      "outputs": [],
      "stateMutability": "nonpayable",
      "type": "function"
    }
  ],
  "bytecode": "0x608060405234801561001057600080fd5b506103f3806100206000396000f3fe608060405234801561001057600080fd5b506004361061004c5760003560e01c806301cb08c514610051578063936469d61461006d578063f6066e821461008b578063fe4b84df146100a9575b600080fd5b61006b60048036038101906100669190610254565b6100c5565b005b6100756100cf565b60405161008291906102fd565b60405180910390f35b6100936100d9565b6040516100a091906102fd565b60405180910390f35b6100c360048036038101906100be9190610254565b6100de565b005b8060018190555050565b6000600154905090565b602a81565b60008060019054906101000a900460ff1615905080801561010f5750600160008054906101000a900460ff1660ff16105b8061013c575061011e3061021c565b15801561013b5750600160008054906101000a900460ff1660ff16145b5b61017b576040517f08c379a0000000000000000000000000000000000000000000000000000000008152600401610172906102dd565b60405180910390fd5b60016000806101000a81548160ff021916908360ff16021790555080156101b8576001600060016101000a81548160ff0219169083151502179055505b8160018190555080156102185760008060016101000a81548160ff0219169083151502179055507f7f26b83ff96e1f2b6a682f133852f6798a09c465da95921460cefb3847402498600160405161020f91906102c2565b60405180910390a15b5050565b6000808273ffffffffffffffffffffffffffffffffffffffff163b119050919050565b60008135905061024e816103a6565b92915050565b60006020828403121561026a57610269610352565b5b60006102788482850161023f565b91505092915050565b61028a81610340565b82525050565b600061029d602e83610318565b91506102a882610357565b604082019050919050565b6102bc81610329565b82525050565b60006020820190506102d76000830184610281565b92915050565b600060208201905081810360008301526102f681610290565b9050919050565b600060208201905061031260008301846102b3565b92915050565b600082825260208201905092915050565b6000819050919050565b600060ff82169050919050565b600061034b82610333565b9050919050565b600080fd5b7f496e697469616c697a61626c653a20636f6e747261637420697320616c72656160008201527f647920696e697469616c697a6564000000000000000000000000000000000000602082015250565b6103af81610329565b81146103ba57600080fd5b5056fea26469706673582212206f702912b0237789f93a6863c96adb6d24297550af6e48385d307d88d91f75c464736f6c63430008070033",
  "linkReferences": {},
  "deployedLinkReferences": {}
}