{
  "_format": "hh-sol-artifact-1",
  "contractName": "MyContractV2",
  "sourceName": "contracts/MyContractV2.sol",
  "abi": [
    {
      "anonymous": false,
      "inputs": [
        {
          "indexed": false,
          "internalType": "uint8",
          "name": "version",
          "type": "uint8"
        }
      ],
      "name": "Initialized",
      "type": "event"
    },
    {
      "inputs": [],
      "name": "NEW_CONSTANT",
      "outputs": [
        {
          "internalType": "uint256",
          "name": "",
          "type": "uint256"
        }
      ],
      "stateMutability": "view",
      "type": "function"
    },
    {
      "inputs": [],
      "name": "getStateVariable",
      "outputs": [
        {
          "internalType": "uint256",
          "name": "",
          "type": "uint256"
        }
      ],
      "stateMutability": "view",
      "type": "function"
    },
    {
      "inputs": [
        {
          "internalType": "uint256",
          "name": "stateVariable",
          "type": "uint256"
        }
      ],
      "name": "initialize",
      "outputs": [],
      "stateMutability": "nonpayable",
      "type": "function"
    },
    {
      "inputs": [
        {
          "internalType": "uint256",
          "name": "value",
          "type": "uint256"
        }
      ],
      "name": "setStateVariable",
      "outputs": [],
      "stateMutability": "nonpayable",
      "type": "function"
    }
  ],
  "bytecode": "0x608060405234801561001057600080fd5b50610488806100206000396000f3fe608060405234801561001057600080fd5b506004361061004c5760003560e01c806301cb08c514610051578063936469d61461006d578063f6c4806d1461008b578063fe4b84df146100a9575b600080fd5b61006b60048036038101906100669190610260565b6100c5565b005b6100756100db565b6040516100829190610309565b60405180910390f35b6100936100e5565b6040516100a09190610309565b60405180910390f35b6100c360048036038101906100be9190610260565b6100ea565b005b6002816100d29190610335565b60018190555050565b6000600154905090565b605481565b60008060019054906101000a900460ff1615905080801561011b5750600160008054906101000a900460ff1660ff16105b80610148575061012a30610228565b1580156101475750600160008054906101000a900460ff1660ff16145b5b610187576040517f08c379a000000000000000000000000000000000000000000000000000000000815260040161017e906102e9565b60405180910390fd5b60016000806101000a81548160ff021916908360ff16021790555080156101c4576001600060016101000a81548160ff0219169083151502179055505b8160018190555080156102245760008060016101000a81548160ff0219169083151502179055507f7f26b83ff96e1f2b6a682f133852f6798a09c465da95921460cefb3847402498600160405161021b91906102ce565b60405180910390a15b5050565b6000808273ffffffffffffffffffffffffffffffffffffffff163b119050919050565b60008135905061025a8161043b565b92915050565b600060208284031215610276576102756103e7565b5b60006102848482850161024b565b91505092915050565b610296816103a6565b82525050565b60006102a9602e83610324565b91506102b4826103ec565b604082019050919050565b6102c88161038f565b82525050565b60006020820190506102e3600083018461028d565b92915050565b600060208201905081810360008301526103028161029c565b9050919050565b600060208201905061031e60008301846102bf565b92915050565b600082825260208201905092915050565b60006103408261038f565b915061034b8361038f565b9250817fffffffffffffffffffffffffffffffffffffffffffffffffffffffffffffffff0483118215151615610384576103836103b8565b5b828202905092915050565b6000819050919050565b600060ff82169050919050565b60006103b182610399565b9050919050565b7f4e487b7100000000000000000000000000000000000000000000000000000000600052601160045260246000fd5b600080fd5b7f496e697469616c697a61626c653a20636f6e747261637420697320616c72656160008201527f647920696e697469616c697a6564000000000000000000000000000000000000602082015250565b6104448161038f565b811461044f57600080fd5b5056fea2646970667358221220e3b5dd7fffbc60dd8b4ad08fe4d3aeccae787dc00e98b0fab1396fc67c1d540f64736f6c63430008070033",
  "linkReferences": {},
  "deployedLinkReferences": {}
}